{
  "_format": "hh-sol-artifact-1",
  "contractName": "ProofVault",
  "sourceName": "contracts/ProofVault.sol",
  "abi": [
    {
      "anonymous": false,
      "inputs": [
        {
          "indexed": true,
          "internalType": "string",
          "name": "ipfsHash",
          "type": "string"
        },
        {
          "indexed": false,
          "internalType": "string",
          "name": "issuer",
          "type": "string"
        },
        {
          "indexed": false,
          "internalType": "string",
          "name": "receiver",
          "type": "string"
        },
        {
          "indexed": false,
          "internalType": "uint256",
          "name": "timestamp",
          "type": "uint256"
        }
      ],
      "name": "CertificateUploaded",
      "type": "event"
    },
    {
      "inputs": [
        {
          "internalType": "string",
          "name": "",
          "type": "string"
        }
      ],
      "name": "certificates",
      "outputs": [
        {
          "internalType": "string",
          "name": "ipfsHash",
          "type": "string"
        },
        {
          "internalType": "string",
          "name": "issuer",
          "type": "string"
        },
        {
          "internalType": "string",
          "name": "receiver",
          "type": "string"
        },
        {
          "internalType": "uint256",
          "name": "timestamp",
          "type": "uint256"
        }
      ],
      "stateMutability": "view",
      "type": "function"
    },
    {
      "inputs": [
        {
          "internalType": "string",
          "name": "ipfsHash",
          "type": "string"
        },
        {
          "internalType": "string",
          "name": "issuer",
          "type": "string"
        },
        {
          "internalType": "string",
          "name": "receiver",
          "type": "string"
        }
      ],
      "name": "uploadCertificate",
      "outputs": [],
      "stateMutability": "nonpayable",
      "type": "function"
    },
    {
      "inputs": [
        {
          "internalType": "string",
          "name": "ipfsHash",
          "type": "string"
        }
      ],
      "name": "verifyCertificate",
      "outputs": [
        {
          "internalType": "bool",
          "name": "exists",
          "type": "bool"
        },
        {
          "internalType": "string",
          "name": "issuer",
          "type": "string"
        },
        {
          "internalType": "string",
          "name": "receiver",
          "type": "string"
        },
        {
          "internalType": "uint256",
          "name": "timestamp",
          "type": "uint256"
        }
      ],
      "stateMutability": "view",
      "type": "function"
    }
  ],
  "bytecode": "0x608060405234801561001057600080fd5b50610e03806100206000396000f3fe608060405234801561001057600080fd5b50600436106100415760003560e01c80635a7b502f146100465780638b23d875146100625780638f2b91ea14610095575b600080fd5b610060600480360381019061005b919061079b565b6100c8565b005b61007c60048036038101906100779190610842565b61020f565b60405161008c949392919061093e565b60405180910390f35b6100af60048036038101906100aa9190610842565b610463565b6040516100bf9493929190610991565b60405180910390f35b600080846040516100d99190610a27565b9081526020016040518091039020600301541461012b576040517f08c379a000000000000000000000000000000000000000000000000000000000815260040161012290610a8a565b60405180910390fd5b60405180608001604052808481526020018381526020018281526020014281525060008460405161015c9190610a27565b9081526020016040518091039020600082015181600001908161017f9190610cb6565b5060208201518160010190816101959190610cb6565b5060408201518160020190816101ab9190610cb6565b5060608201518160030155905050826040516101c79190610a27565b60405180910390207f24324fc9377350e70de871c8f126d3493dbb65a3956d4850ee85d39501a24b2b83834260405161020293929190610d88565b60405180910390a2505050565b60006060806000806000866040516102279190610a27565b908152602001604051809103902060405180608001604052908160008201805461025090610ad9565b80601f016020809104026020016040519081016040528092919081815260200182805461027c90610ad9565b80156102c95780601f1061029e576101008083540402835291602001916102c9565b820191906000526020600020905b8154815290600101906020018083116102ac57829003601f168201915b505050505081526020016001820180546102e290610ad9565b80601f016020809104026020016040519081016040528092919081815260200182805461030e90610ad9565b801561035b5780601f106103305761010080835404028352916020019161035b565b820191906000526020600020905b81548152906001019060200180831161033e57829003601f168201915b5050505050815260200160028201805461037490610ad9565b80601f01602080910402602001604051908101604052809291908181526020018280546103a090610ad9565b80156103ed5780601f106103c2576101008083540402835291602001916103ed565b820191906000526020600020905b8154815290600101906020018083116103d057829003601f168201915b505050505081526020016003820154815250509050600081606001511461042d57600181602001518260400151836060015194509450945094505061045c565b600080604051806020016040528060008152509060405180602001604052806000815250909450945094509450505b9193509193565b60008180516020810182018051848252602083016020850120818352809550505050505060009150905080600001805461049c90610ad9565b80601f01602080910402602001604051908101604052809291908181526020018280546104c890610ad9565b80156105155780601f106104ea57610100808354040283529160200191610515565b820191906000526020600020905b8154815290600101906020018083116104f857829003601f168201915b50505050509080600101805461052a90610ad9565b80601f016020809104026020016040519081016040528092919081815260200182805461055690610ad9565b80156105a35780601f10610578576101008083540402835291602001916105a3565b820191906000526020600020905b81548152906001019060200180831161058657829003601f168201915b5050505050908060020180546105b890610ad9565b80601f01602080910402602001604051908101604052809291908181526020018280546105e490610ad9565b80156106315780601f1061060657610100808354040283529160200191610631565b820191906000526020600020905b81548152906001019060200180831161061457829003601f168201915b5050505050908060030154905084565b6000604051905090565b600080fd5b600080fd5b600080fd5b600080fd5b6000601f19601f8301169050919050565b7f4e487b7100000000000000000000000000000000000000000000000000000000600052604160045260246000fd5b6106a88261065f565b810181811067ffffffffffffffff821117156106c7576106c6610670565b5b80604052505050565b60006106da610641565b90506106e6828261069f565b919050565b600067ffffffffffffffff82111561070657610705610670565b5b61070f8261065f565b9050602081019050919050565b82818337600083830152505050565b600061073e610739846106eb565b6106d0565b90508281526020810184848401111561075a5761075961065a565b5b61076584828561071c565b509392505050565b600082601f83011261078257610781610655565b5b813561079284826020860161072b565b91505092915050565b6000806000606084860312156107b4576107b361064b565b5b600084013567ffffffffffffffff8111156107d2576107d1610650565b5b6107de8682870161076d565b935050602084013567ffffffffffffffff8111156107ff576107fe610650565b5b61080b8682870161076d565b925050604084013567ffffffffffffffff81111561082c5761082b610650565b5b6108388682870161076d565b9150509250925092565b6000602082840312156108585761085761064b565b5b600082013567ffffffffffffffff81111561087657610875610650565b5b6108828482850161076d565b91505092915050565b60008115159050919050565b6108a08161088b565b82525050565b600081519050919050565b600082825260208201905092915050565b60005b838110156108e05780820151818401526020810190506108c5565b60008484015250505050565b60006108f7826108a6565b61090181856108b1565b93506109118185602086016108c2565b61091a8161065f565b840191505092915050565b6000819050919050565b61093881610925565b82525050565b60006080820190506109536000830187610897565b818103602083015261096581866108ec565b9050818103604083015261097981856108ec565b9050610988606083018461092f565b95945050505050565b600060808201905081810360008301526109ab81876108ec565b905081810360208301526109bf81866108ec565b905081810360408301526109d381856108ec565b90506109e2606083018461092f565b95945050505050565b600081905092915050565b6000610a01826108a6565b610a0b81856109eb565b9350610a1b8185602086016108c2565b80840191505092915050565b6000610a3382846109f6565b915081905092915050565b7f436572746966696361746520616c726561647920657869737473000000000000600082015250565b6000610a74601a836108b1565b9150610a7f82610a3e565b602082019050919050565b60006020820190508181036000830152610aa381610a67565b9050919050565b7f4e487b7100000000000000000000000000000000000000000000000000000000600052602260045260246000fd5b60006002820490506001821680610af157607f821691505b602082108103610b0457610b03610aaa565b5b50919050565b60008190508160005260206000209050919050565b60006020601f8301049050919050565b600082821b905092915050565b600060088302610b6c7fffffffffffffffffffffffffffffffffffffffffffffffffffffffffffffffff82610b2f565b610b768683610b2f565b95508019841693508086168417925050509392505050565b6000819050919050565b6000610bb3610bae610ba984610925565b610b8e565b610925565b9050919050565b6000819050919050565b610bcd83610b98565b610be1610bd982610bba565b848454610b3c565b825550505050565b600090565b610bf6610be9565b610c01818484610bc4565b505050565b5b81811015610c2557610c1a600082610bee565b600181019050610c07565b5050565b601f821115610c6a57610c3b81610b0a565b610c4484610b1f565b81016020851015610c53578190505b610c67610c5f85610b1f565b830182610c06565b50505b505050565b600082821c905092915050565b6000610c8d60001984600802610c6f565b1980831691505092915050565b6000610ca68383610c7c565b9150826002028217905092915050565b610cbf826108a6565b67ffffffffffffffff811115610cd857610cd7610670565b5b610ce28254610ad9565b610ced828285610c29565b600060209050601f831160018114610d205760008415610d0e578287015190505b610d188582610c9a565b865550610d80565b601f198416610d2e86610b0a565b60005b82811015610d5657848901518255600182019150602085019450602081019050610d31565b86831015610d735784890151610d6f601f891682610c7c565b8355505b6001600288020188555050505b505050505050565b60006060820190508181036000830152610da281866108ec565b90508181036020830152610db681856108ec565b9050610dc5604083018461092f565b94935050505056fea26469706673582212200b385a287e58e6d8c840c93f5c0fc3732069dd04e1ee260f510b30ee7279a32d64736f6c63430008140033",
  "linkReferences": {},
  "deployedLinkReferences": {}
}