{
  "_format": "hh-sol-artifact-1",
  "contractName": "ProofVault",
  "sourceName": "contracts/ProofVault.sol",
  "abi": [
    {
      "anonymous": false,
      "inputs": [
        {
          "indexed": true,
          "internalType": "bytes32",
          "name": "ipfsHashHash",
          "type": "bytes32"
        },
        {
          "indexed": false,
          "internalType": "string",
          "name": "ipfsHash",
          "type": "string"
        },
        {
          "indexed": false,
          "internalType": "string",
          "name": "issuer",
          "type": "string"
        },
        {
          "indexed": false,
          "internalType": "uint256",
          "name": "timestamp",
          "type": "uint256"
        }
      ],
      "name": "CertificateRevoked",
      "type": "event"
    },
    {
      "anonymous": false,
      "inputs": [
        {
          "indexed": true,
          "internalType": "bytes32",
          "name": "ipfsHashHash",
          "type": "bytes32"
        },
        {
          "indexed": false,
          "internalType": "string",
          "name": "ipfsHash",
          "type": "string"
        },
        {
          "indexed": false,
          "internalType": "string",
          "name": "issuer",
          "type": "string"
        },
        {
          "indexed": false,
          "internalType": "string",
          "name": "receiver",
          "type": "string"
        },
        {
          "indexed": false,
          "internalType": "uint256",
          "name": "timestamp",
          "type": "uint256"
        }
      ],
      "name": "CertificateUploaded",
      "type": "event"
    },
    {
      "inputs": [],
      "name": "getAllCertificates",
      "outputs": [
        {
          "components": [
            {
              "internalType": "string",
              "name": "ipfsHash",
              "type": "string"
            },
            {
              "internalType": "string",
              "name": "issuer",
              "type": "string"
            },
            {
              "internalType": "string",
              "name": "receiver",
              "type": "string"
            },
            {
              "internalType": "uint256",
              "name": "timestamp",
              "type": "uint256"
            },
            {
              "internalType": "bool",
              "name": "revoked",
              "type": "bool"
            }
          ],
          "internalType": "struct ProofVault.Certificate[]",
          "name": "",
          "type": "tuple[]"
        }
      ],
      "stateMutability": "view",
      "type": "function"
    },
    {
      "inputs": [
        {
          "internalType": "string",
          "name": "ipfsHash",
          "type": "string"
        }
      ],
      "name": "revokeCertificate",
      "outputs": [],
      "stateMutability": "nonpayable",
      "type": "function"
    },
    {
      "inputs": [
        {
          "internalType": "string",
          "name": "ipfsHash",
          "type": "string"
        },
        {
          "internalType": "string",
          "name": "issuer",
          "type": "string"
        },
        {
          "internalType": "string",
          "name": "receiver",
          "type": "string"
        }
      ],
      "name": "uploadCertificate",
      "outputs": [],
      "stateMutability": "nonpayable",
      "type": "function"
    },
    {
      "inputs": [
        {
          "internalType": "string",
          "name": "ipfsHash",
          "type": "string"
        }
      ],
      "name": "verifyCertificate",
      "outputs": [
        {
          "internalType": "bool",
          "name": "exists",
          "type": "bool"
        },
        {
          "internalType": "string",
          "name": "issuer",
          "type": "string"
        },
        {
          "internalType": "string",
          "name": "receiver",
          "type": "string"
        },
        {
          "internalType": "uint256",
          "name": "timestamp",
          "type": "uint256"
        },
        {
          "internalType": "bool",
          "name": "revoked",
          "type": "bool"
        }
      ],
      "stateMutability": "view",
      "type": "function"
    }
  ],
  "bytecode": "0x608060405234801561001057600080fd5b506114fe806100206000396000f3fe608060405234801561001057600080fd5b506004361061004c5760003560e01c806313fcfe8014610051578063142e15421461006f5780635a7b502f1461008b5780638b23d875146100a7575b600080fd5b6100596100db565b6040516100669190610b38565b60405180910390f35b61008960048036038101906100849190610ca3565b6103a4565b005b6100a560048036038101906100a09190610cec565b6104c6565b005b6100c160048036038101906100bc9190610ca3565b61067e565b6040516100d2959493929190610dfb565b60405180910390f35b6060600060018054905067ffffffffffffffff8111156100fe576100fd610b78565b5b60405190808252806020026020018201604052801561013757816020015b6101246108fd565b81526020019060019003908161011c5790505b50905060005b60018054905081101561039c576000600182815481106101605761015f610e5c565b5b906000526020600020016040516101779190610f8e565b90815260200160405180910390206040518060a00160405290816000820180546101a090610eba565b80601f01602080910402602001604051908101604052809291908181526020018280546101cc90610eba565b80156102195780601f106101ee57610100808354040283529160200191610219565b820191906000526020600020905b8154815290600101906020018083116101fc57829003601f168201915b5050505050815260200160018201805461023290610eba565b80601f016020809104026020016040519081016040528092919081815260200182805461025e90610eba565b80156102ab5780601f10610280576101008083540402835291602001916102ab565b820191906000526020600020905b81548152906001019060200180831161028e57829003601f168201915b505050505081526020016002820180546102c490610eba565b80601f01602080910402602001604051908101604052809291908181526020018280546102f090610eba565b801561033d5780601f106103125761010080835404028352916020019161033d565b820191906000526020600020905b81548152906001019060200180831161032057829003601f168201915b50505050508152602001600382015481526020016004820160009054906101000a900460ff16151515158152505082828151811061037e5761037d610e5c565b5b6020026020010181905250808061039490610fd4565b91505061013d565b508091505090565b600080826040516103b5919061104d565b90815260200160405180910390206003015403610407576040517f08c379a00000000000000000000000000000000000000000000000000000000081526004016103fe906110b0565b60405180910390fd5b6001600082604051610419919061104d565b908152602001604051809103902060040160006101000a81548160ff02191690831515021790555080604051602001610452919061104d565b604051602081830303815290604052805190602001207f631d69a387795da6392ff9943036899a8e4c03384da81ecec230fb30549d02608260008460405161049a919061104d565b9081526020016040518091039020600101426040516104bb93929190611154565b60405180910390a250565b600080846040516104d7919061104d565b90815260200160405180910390206003015414610529576040517f08c379a0000000000000000000000000000000000000000000000000000000008152600401610520906111e5565b60405180910390fd5b6040518060a0016040528084815260200183815260200182815260200142815260200160001515815250600084604051610563919061104d565b90815260200160405180910390206000820151816000019081610586919061139c565b50602082015181600101908161059c919061139c565b5060408201518160020190816105b2919061139c565b506060820151816003015560808201518160040160006101000a81548160ff021916908315150217905550905050600183908060018154018082558091505060019003906000526020600020016000909190919091509081610614919061139c565b5082604051602001610626919061104d565b604051602081830303815290604052805190602001207f936c1e4790acca3e706770b2a7ab4c6a956a3a90953f2dbaa372b01bc988a8a184848442604051610671949392919061146e565b60405180910390a2505050565b600060608060008060008087604051610697919061104d565b90815260200160405180910390206040518060a00160405290816000820180546106c090610eba565b80601f01602080910402602001604051908101604052809291908181526020018280546106ec90610eba565b80156107395780601f1061070e57610100808354040283529160200191610739565b820191906000526020600020905b81548152906001019060200180831161071c57829003601f168201915b5050505050815260200160018201805461075290610eba565b80601f016020809104026020016040519081016040528092919081815260200182805461077e90610eba565b80156107cb5780601f106107a0576101008083540402835291602001916107cb565b820191906000526020600020905b8154815290600101906020018083116107ae57829003601f168201915b505050505081526020016002820180546107e490610eba565b80601f016020809104026020016040519081016040528092919081815260200182805461081090610eba565b801561085d5780601f106108325761010080835404028352916020019161085d565b820191906000526020600020905b81548152906001019060200180831161084057829003601f168201915b50505050508152602001600382015481526020016004820160009054906101000a900460ff161515151581525050905060008160600151146108bf576001816020015182604001518360600151846080015195509550955095509550506108f4565b600080600060405180602001604052806000815250919060405180602001604052806000815250919095509550955095509550505b91939590929450565b6040518060a00160405280606081526020016060815260200160608152602001600081526020016000151581525090565b600081519050919050565b600082825260208201905092915050565b6000819050602082019050919050565b600081519050919050565b600082825260208201905092915050565b60005b83811015610994578082015181840152602081019050610979565b60008484015250505050565b6000601f19601f8301169050919050565b60006109bc8261095a565b6109c68185610965565b93506109d6818560208601610976565b6109df816109a0565b840191505092915050565b6000819050919050565b6109fd816109ea565b82525050565b60008115159050919050565b610a1881610a03565b82525050565b600060a0830160008301518482036000860152610a3b82826109b1565b91505060208301518482036020860152610a5582826109b1565b91505060408301518482036040860152610a6f82826109b1565b9150506060830151610a8460608601826109f4565b506080830151610a976080860182610a0f565b508091505092915050565b6000610aae8383610a1e565b905092915050565b6000602082019050919050565b6000610ace8261092e565b610ad88185610939565b935083602082028501610aea8561094a565b8060005b85811015610b265784840389528151610b078582610aa2565b9450610b1283610ab6565b925060208a01995050600181019050610aee565b50829750879550505050505092915050565b60006020820190508181036000830152610b528184610ac3565b905092915050565b6000604051905090565b600080fd5b600080fd5b600080fd5b600080fd5b7f4e487b7100000000000000000000000000000000000000000000000000000000600052604160045260246000fd5b610bb0826109a0565b810181811067ffffffffffffffff82111715610bcf57610bce610b78565b5b80604052505050565b6000610be2610b5a565b9050610bee8282610ba7565b919050565b600067ffffffffffffffff821115610c0e57610c0d610b78565b5b610c17826109a0565b9050602081019050919050565b82818337600083830152505050565b6000610c46610c4184610bf3565b610bd8565b905082815260208101848484011115610c6257610c61610b73565b5b610c6d848285610c24565b509392505050565b600082601f830112610c8a57610c89610b6e565b5b8135610c9a848260208601610c33565b91505092915050565b600060208284031215610cb957610cb8610b64565b5b600082013567ffffffffffffffff811115610cd757610cd6610b69565b5b610ce384828501610c75565b91505092915050565b600080600060608486031215610d0557610d04610b64565b5b600084013567ffffffffffffffff811115610d2357610d22610b69565b5b610d2f86828701610c75565b935050602084013567ffffffffffffffff811115610d5057610d4f610b69565b5b610d5c86828701610c75565b925050604084013567ffffffffffffffff811115610d7d57610d7c610b69565b5b610d8986828701610c75565b9150509250925092565b610d9c81610a03565b82525050565b600082825260208201905092915050565b6000610dbe8261095a565b610dc88185610da2565b9350610dd8818560208601610976565b610de1816109a0565b840191505092915050565b610df5816109ea565b82525050565b600060a082019050610e106000830188610d93565b8181036020830152610e228187610db3565b90508181036040830152610e368186610db3565b9050610e456060830185610dec565b610e526080830184610d93565b9695505050505050565b7f4e487b7100000000000000000000000000000000000000000000000000000000600052603260045260246000fd5b7f4e487b7100000000000000000000000000000000000000000000000000000000600052602260045260246000fd5b60006002820490506001821680610ed257607f821691505b602082108103610ee557610ee4610e8b565b5b50919050565b600081905092915050565b60008190508160005260206000209050919050565b60008154610f1881610eba565b610f228186610eeb565b94506001821660008114610f3d5760018114610f5257610f85565b60ff1983168652811515820286019350610f85565b610f5b85610ef6565b60005b83811015610f7d57815481890152600182019150602081019050610f5e565b838801955050505b50505092915050565b6000610f9a8284610f0b565b915081905092915050565b7f4e487b7100000000000000000000000000000000000000000000000000000000600052601160045260246000fd5b6000610fdf826109ea565b91507fffffffffffffffffffffffffffffffffffffffffffffffffffffffffffffffff820361101157611010610fa5565b5b600182019050919050565b60006110278261095a565b6110318185610eeb565b9350611041818560208601610976565b80840191505092915050565b6000611059828461101c565b915081905092915050565b7f436572746966696361746520646f6573206e6f74206578697374000000000000600082015250565b600061109a601a83610da2565b91506110a582611064565b602082019050919050565b600060208201905081810360008301526110c98161108d565b9050919050565b600081546110dd81610eba565b6110e78186610da2565b9450600182166000811461110257600181146111185761114b565b60ff19831686528115156020028601935061114b565b61112185610ef6565b60005b8381101561114357815481890152600182019150602081019050611124565b808801955050505b50505092915050565b6000606082019050818103600083015261116e8186610db3565b9050818103602083015261118281856110d0565b90506111916040830184610dec565b949350505050565b7f436572746966696361746520616c726561647920657869737473000000000000600082015250565b60006111cf601a83610da2565b91506111da82611199565b602082019050919050565b600060208201905081810360008301526111fe816111c2565b9050919050565b60006020601f8301049050919050565b600082821b905092915050565b6000600883026112527fffffffffffffffffffffffffffffffffffffffffffffffffffffffffffffffff82611215565b61125c8683611215565b95508019841693508086168417925050509392505050565b6000819050919050565b600061129961129461128f846109ea565b611274565b6109ea565b9050919050565b6000819050919050565b6112b38361127e565b6112c76112bf826112a0565b848454611222565b825550505050565b600090565b6112dc6112cf565b6112e78184846112aa565b505050565b5b8181101561130b576113006000826112d4565b6001810190506112ed565b5050565b601f8211156113505761132181610ef6565b61132a84611205565b81016020851015611339578190505b61134d61134585611205565b8301826112ec565b50505b505050565b600082821c905092915050565b600061137360001984600802611355565b1980831691505092915050565b600061138c8383611362565b9150826002028217905092915050565b6113a58261095a565b67ffffffffffffffff8111156113be576113bd610b78565b5b6113c88254610eba565b6113d382828561130f565b600060209050601f83116001811461140657600084156113f4578287015190505b6113fe8582611380565b865550611466565b601f19841661141486610ef6565b60005b8281101561143c57848901518255600182019150602085019450602081019050611417565b868310156114595784890151611455601f891682611362565b8355505b6001600288020188555050505b505050505050565b600060808201905081810360008301526114888187610db3565b9050818103602083015261149c8186610db3565b905081810360408301526114b08185610db3565b90506114bf6060830184610dec565b9594505050505056fea2646970667358221220c84951feb6e276f4e35f23de7e1a052467ee8c3448532461ed7f5c5eaee2fd0d64736f6c63430008140033",
  "linkReferences": {},
  "deployedLinkReferences": {}
}